{
  "_format": "hh-sol-artifact-1",
  "contractName": "MemoryGame",
  "sourceName": "contracts/MemoryGame.sol",
  "abi": [
    {
      "anonymous": false,
      "inputs": [
        {
          "indexed": true,
          "internalType": "address",
          "name": "player",
          "type": "address"
        },
        {
          "indexed": false,
          "internalType": "uint256",
          "name": "amount",
          "type": "uint256"
        }
      ],
      "name": "Deposited",
      "type": "event"
    },
    {
      "anonymous": false,
      "inputs": [
        {
          "indexed": true,
          "internalType": "address",
          "name": "player",
          "type": "address"
        },
        {
          "indexed": false,
          "internalType": "uint256",
          "name": "amount",
          "type": "uint256"
        }
      ],
      "name": "Withdrawn",
      "type": "event"
    },
    {
      "inputs": [],
      "name": "deposit",
      "outputs": [],
      "stateMutability": "payable",
      "type": "function"
    },
    {
      "inputs": [
        {
          "internalType": "address",
          "name": "",
          "type": "address"
        }
      ],
      "name": "deposits",
      "outputs": [
        {
          "internalType": "uint256",
          "name": "",
          "type": "uint256"
        }
      ],
      "stateMutability": "view",
      "type": "function"
    },
    {
      "inputs": [
        {
          "internalType": "address",
          "name": "player",
          "type": "address"
        }
      ],
      "name": "getBalance",
      "outputs": [
        {
          "internalType": "uint256",
          "name": "",
          "type": "uint256"
        }
      ],
      "stateMutability": "view",
      "type": "function"
    },
    {
      "inputs": [
        {
          "internalType": "uint256",
          "name": "amount",
          "type": "uint256"
        }
      ],
      "name": "withdraw",
      "outputs": [],
      "stateMutability": "nonpayable",
      "type": "function"
    },
    {
      "stateMutability": "payable",
      "type": "receive"
    }
  ],
  "bytecode": "0x608060405234801561001057600080fd5b5061093b806100206000396000f3fe6080604052600436106100435760003560e01c80632e1a7d4d146100f2578063d0e30db01461011b578063f8b2cb4f14610125578063fc7e286d14610162576100ed565b366100ed57346000803373ffffffffffffffffffffffffffffffffffffffff1673ffffffffffffffffffffffffffffffffffffffff16815260200190815260200160002060008282546100969190610537565b925050819055503373ffffffffffffffffffffffffffffffffffffffff167f2da466a7b24304f47e87fa2e1e5a81b9831ce54fec19055ce277ca2f39ba42c4346040516100e3919061057a565b60405180910390a2005b600080fd5b3480156100fe57600080fd5b50610119600480360381019061011491906105c6565b61019f565b005b6101236103b6565b005b34801561013157600080fd5b5061014c60048036038101906101479190610651565b61049e565b604051610159919061057a565b60405180910390f35b34801561016e57600080fd5b5061018960048036038101906101849190610651565b6104e6565b604051610196919061057a565b60405180910390f35b600081116101e2576040517f08c379a00000000000000000000000000000000000000000000000000000000081526004016101d990610701565b60405180910390fd5b806000803373ffffffffffffffffffffffffffffffffffffffff1673ffffffffffffffffffffffffffffffffffffffff168152602001908152602001600020541015610263576040517f08c379a000000000000000000000000000000000000000000000000000000000815260040161025a9061076d565b60405180910390fd5b806000803373ffffffffffffffffffffffffffffffffffffffff1673ffffffffffffffffffffffffffffffffffffffff16815260200190815260200160002060008282546102b1919061078d565b9250508190555060003373ffffffffffffffffffffffffffffffffffffffff16826040516102de906107f2565b60006040518083038185875af1925050503d806000811461031b576040519150601f19603f3d011682016040523d82523d6000602084013e610320565b606091505b5050905080610364576040517f08c379a000000000000000000000000000000000000000000000000000000000815260040161035b90610853565b60405180910390fd5b3373ffffffffffffffffffffffffffffffffffffffff167f7084f5476618d8e60b11ef0d7d3f06914655adb8793e28ff7f018d4c76d505d5836040516103aa919061057a565b60405180910390a25050565b600034116103f9576040517f08c379a00000000000000000000000000000000000000000000000000000000081526004016103f0906108e5565b60405180910390fd5b346000803373ffffffffffffffffffffffffffffffffffffffff1673ffffffffffffffffffffffffffffffffffffffff16815260200190815260200160002060008282546104479190610537565b925050819055503373ffffffffffffffffffffffffffffffffffffffff167f2da466a7b24304f47e87fa2e1e5a81b9831ce54fec19055ce277ca2f39ba42c434604051610494919061057a565b60405180910390a2565b60008060008373ffffffffffffffffffffffffffffffffffffffff1673ffffffffffffffffffffffffffffffffffffffff168152602001908152602001600020549050919050565b60006020528060005260406000206000915090505481565b6000819050919050565b7f4e487b7100000000000000000000000000000000000000000000000000000000600052601160045260246000fd5b6000610542826104fe565b915061054d836104fe565b925082820190508082111561056557610564610508565b5b92915050565b610574816104fe565b82525050565b600060208201905061058f600083018461056b565b92915050565b600080fd5b6105a3816104fe565b81146105ae57600080fd5b50565b6000813590506105c08161059a565b92915050565b6000602082840312156105dc576105db610595565b5b60006105ea848285016105b1565b91505092915050565b600073ffffffffffffffffffffffffffffffffffffffff82169050919050565b600061061e826105f3565b9050919050565b61062e81610613565b811461063957600080fd5b50565b60008135905061064b81610625565b92915050565b60006020828403121561066757610666610595565b5b60006106758482850161063c565b91505092915050565b600082825260208201905092915050565b7f5769746864726177616c20616d6f756e74206d7573742062652067726561746560008201527f72207468616e2030000000000000000000000000000000000000000000000000602082015250565b60006106eb60288361067e565b91506106f68261068f565b604082019050919050565b6000602082019050818103600083015261071a816106de565b9050919050565b7f496e73756666696369656e742062616c616e6365000000000000000000000000600082015250565b600061075760148361067e565b915061076282610721565b602082019050919050565b600060208201905081810360008301526107868161074a565b9050919050565b6000610798826104fe565b91506107a3836104fe565b92508282039050818111156107bb576107ba610508565b5b92915050565b600081905092915050565b50565b60006107dc6000836107c1565b91506107e7826107cc565b600082019050919050565b60006107fd826107cf565b9150819050919050565b7f5472616e73666572206661696c65640000000000000000000000000000000000600082015250565b600061083d600f8361067e565b915061084882610807565b602082019050919050565b6000602082019050818103600083015261086c81610830565b9050919050565b7f4465706f73697420616d6f756e74206d7573742062652067726561746572207460008201527f68616e2030000000000000000000000000000000000000000000000000000000602082015250565b60006108cf60258361067e565b91506108da82610873565b604082019050919050565b600060208201905081810360008301526108fe816108c2565b905091905056fea2646970667358221220c6f12ed6c42e1d2f8c359803193e6f4d2b991af2402a5ed9cc898746555d73bd64736f6c63430008140033",
  "linkReferences": {},
  "deployedLinkReferences": {}
}