{
  "_format": "hh-sol-artifact-1",
  "contractName": "MemoryGame",
  "sourceName": "contracts/MemoryGame.sol",
  "abi": [
    {
      "inputs": [],
      "stateMutability": "nonpayable",
      "type": "constructor"
    },
    {
      "anonymous": false,
      "inputs": [
        {
          "indexed": true,
          "internalType": "address",
          "name": "player",
          "type": "address"
        },
        {
          "indexed": false,
          "internalType": "uint256",
          "name": "amount",
          "type": "uint256"
        }
      ],
      "name": "Deposited",
      "type": "event"
    },
    {
      "anonymous": false,
      "inputs": [
        {
          "indexed": false,
          "internalType": "uint256",
          "name": "amount",
          "type": "uint256"
        }
      ],
      "name": "PrizePoolFunded",
      "type": "event"
    },
    {
      "anonymous": false,
      "inputs": [
        {
          "indexed": true,
          "internalType": "address",
          "name": "player",
          "type": "address"
        },
        {
          "indexed": false,
          "internalType": "uint256",
          "name": "amount",
          "type": "uint256"
        }
      ],
      "name": "Withdrawn",
      "type": "event"
    },
    {
      "inputs": [],
      "name": "deposit",
      "outputs": [],
      "stateMutability": "payable",
      "type": "function"
    },
    {
      "inputs": [
        {
          "internalType": "address",
          "name": "",
          "type": "address"
        }
      ],
      "name": "deposits",
      "outputs": [
        {
          "internalType": "uint256",
          "name": "",
          "type": "uint256"
        }
      ],
      "stateMutability": "view",
      "type": "function"
    },
    {
      "inputs": [],
      "name": "fundPrizePool",
      "outputs": [],
      "stateMutability": "payable",
      "type": "function"
    },
    {
      "inputs": [
        {
          "internalType": "address",
          "name": "player",
          "type": "address"
        }
      ],
      "name": "getBalance",
      "outputs": [
        {
          "internalType": "uint256",
          "name": "",
          "type": "uint256"
        }
      ],
      "stateMutability": "view",
      "type": "function"
    },
    {
      "inputs": [],
      "name": "getContractBalance",
      "outputs": [
        {
          "internalType": "uint256",
          "name": "",
          "type": "uint256"
        }
      ],
      "stateMutability": "view",
      "type": "function"
    },
    {
      "inputs": [],
      "name": "owner",
      "outputs": [
        {
          "internalType": "address",
          "name": "",
          "type": "address"
        }
      ],
      "stateMutability": "view",
      "type": "function"
    },
    {
      "inputs": [
        {
          "internalType": "uint256",
          "name": "amount",
          "type": "uint256"
        }
      ],
      "name": "withdraw",
      "outputs": [],
      "stateMutability": "nonpayable",
      "type": "function"
    },
    {
      "stateMutability": "payable",
      "type": "receive"
    }
  ],
  "bytecode": "0x608060405234801561001057600080fd5b5033600160006101000a81548173ffffffffffffffffffffffffffffffffffffffff021916908373ffffffffffffffffffffffffffffffffffffffff160217905550610a43806100616000396000f3fe6080604052600436106100745760003560e01c80638da5cb5b1161004e5780638da5cb5b14610115578063d0e30db014610140578063f8b2cb4f1461014a578063fc7e286d14610187576100b2565b80632e1a7d4d146100b75780636f9fb98a146100e057806388b2f7c31461010b576100b2565b366100b2577f9d81ff1364df34467b23be983916ca00ebe5b231f3c47645a0ad063b56589f48346040516100a89190610597565b60405180910390a1005b600080fd5b3480156100c357600080fd5b506100de60048036038101906100d991906105e3565b6101c4565b005b3480156100ec57600080fd5b506100f561038c565b6040516101029190610597565b60405180910390f35b610113610394565b005b34801561012157600080fd5b5061012a610410565b6040516101379190610651565b60405180910390f35b610148610436565b005b34801561015657600080fd5b50610171600480360381019061016c9190610698565b61051e565b60405161017e9190610597565b60405180910390f35b34801561019357600080fd5b506101ae60048036038101906101a99190610698565b610566565b6040516101bb9190610597565b60405180910390f35b60008111610207576040517f08c379a00000000000000000000000000000000000000000000000000000000081526004016101fe90610748565b60405180910390fd5b8047101561024a576040517f08c379a0000000000000000000000000000000000000000000000000000000008152600401610241906107b4565b60405180910390fd5b60008060003373ffffffffffffffffffffffffffffffffffffffff1673ffffffffffffffffffffffffffffffffffffffff1681526020019081526020016000208190555060003373ffffffffffffffffffffffffffffffffffffffff16826040516102b490610805565b60006040518083038185875af1925050503d80600081146102f1576040519150601f19603f3d011682016040523d82523d6000602084013e6102f6565b606091505b505090508061033a576040517f08c379a000000000000000000000000000000000000000000000000000000000815260040161033190610866565b60405180910390fd5b3373ffffffffffffffffffffffffffffffffffffffff167f7084f5476618d8e60b11ef0d7d3f06914655adb8793e28ff7f018d4c76d505d5836040516103809190610597565b60405180910390a25050565b600047905090565b600034116103d7576040517f08c379a00000000000000000000000000000000000000000000000000000000081526004016103ce906108f8565b60405180910390fd5b7f9d81ff1364df34467b23be983916ca00ebe5b231f3c47645a0ad063b56589f48346040516104069190610597565b60405180910390a1565b600160009054906101000a900473ffffffffffffffffffffffffffffffffffffffff1681565b60003411610479576040517f08c379a00000000000000000000000000000000000000000000000000000000081526004016104709061098a565b60405180910390fd5b346000803373ffffffffffffffffffffffffffffffffffffffff1673ffffffffffffffffffffffffffffffffffffffff16815260200190815260200160002060008282546104c791906109d9565b925050819055503373ffffffffffffffffffffffffffffffffffffffff167f2da466a7b24304f47e87fa2e1e5a81b9831ce54fec19055ce277ca2f39ba42c4346040516105149190610597565b60405180910390a2565b60008060008373ffffffffffffffffffffffffffffffffffffffff1673ffffffffffffffffffffffffffffffffffffffff168152602001908152602001600020549050919050565b60006020528060005260406000206000915090505481565b6000819050919050565b6105918161057e565b82525050565b60006020820190506105ac6000830184610588565b92915050565b600080fd5b6105c08161057e565b81146105cb57600080fd5b50565b6000813590506105dd816105b7565b92915050565b6000602082840312156105f9576105f86105b2565b5b6000610607848285016105ce565b91505092915050565b600073ffffffffffffffffffffffffffffffffffffffff82169050919050565b600061063b82610610565b9050919050565b61064b81610630565b82525050565b60006020820190506106666000830184610642565b92915050565b61067581610630565b811461068057600080fd5b50565b6000813590506106928161066c565b92915050565b6000602082840312156106ae576106ad6105b2565b5b60006106bc84828501610683565b91505092915050565b600082825260208201905092915050565b7f5769746864726177616c20616d6f756e74206d7573742062652067726561746560008201527f72207468616e2030000000000000000000000000000000000000000000000000602082015250565b60006107326028836106c5565b915061073d826106d6565b604082019050919050565b6000602082019050818103600083015261076181610725565b9050919050565b7f496e73756666696369656e7420636f6e74726163742062616c616e6365000000600082015250565b600061079e601d836106c5565b91506107a982610768565b602082019050919050565b600060208201905081810360008301526107cd81610791565b9050919050565b600081905092915050565b50565b60006107ef6000836107d4565b91506107fa826107df565b600082019050919050565b6000610810826107e2565b9150819050919050565b7f5472616e73666572206661696c65640000000000000000000000000000000000600082015250565b6000610850600f836106c5565b915061085b8261081a565b602082019050919050565b6000602082019050818103600083015261087f81610843565b9050919050565b7f46756e6420616d6f756e74206d7573742062652067726561746572207468616e60008201527f2030000000000000000000000000000000000000000000000000000000000000602082015250565b60006108e26022836106c5565b91506108ed82610886565b604082019050919050565b60006020820190508181036000830152610911816108d5565b9050919050565b7f4465706f73697420616d6f756e74206d7573742062652067726561746572207460008201527f68616e2030000000000000000000000000000000000000000000000000000000602082015250565b60006109746025836106c5565b915061097f82610918565b604082019050919050565b600060208201905081810360008301526109a381610967565b9050919050565b7f4e487b7100000000000000000000000000000000000000000000000000000000600052601160045260246000fd5b60006109e48261057e565b91506109ef8361057e565b9250828201905080821115610a0757610a066109aa565b5b9291505056fea2646970667358221220c17d990c6fe7cb6e74fe6bed8631f5ce179620de26084a4a3cf270f157996bde64736f6c63430008140033",
  "linkReferences": {},
  "deployedLinkReferences": {}
}